{
  "_format": "hh-sol-artifact-1",
  "contractName": "IdentityManagement",
  "sourceName": "contracts/IdentityManagement.sol",
  "abi": [
    {
      "inputs": [],
      "name": "getUser",
      "outputs": [
        {
          "internalType": "string",
          "name": "",
          "type": "string"
        }
      ],
      "stateMutability": "view",
      "type": "function"
    },
    {
      "inputs": [
        {
          "internalType": "string",
          "name": "publicKey",
          "type": "string"
        }
      ],
      "name": "registerUser",
      "outputs": [],
      "stateMutability": "nonpayable",
      "type": "function"
    },
    {
      "inputs": [
        {
          "internalType": "address",
          "name": "user",
          "type": "address"
        }
      ],
      "name": "verifyUser",
      "outputs": [
        {
          "internalType": "string",
          "name": "",
          "type": "string"
        }
      ],
      "stateMutability": "view",
      "type": "function"
    }
  ],
  "bytecode": "0x608060405234801561001057600080fd5b506107ef806100206000396000f3fe608060405234801561001057600080fd5b50600436106100415760003560e01c80634d81312014610046578063704f1b9414610076578063832880e714610092575b600080fd5b610060600480360381019061005b9190610308565b6100b0565b60405161006d91906103c5565b60405180910390f35b610090600480360381019061008b919061044c565b610180565b005b61009a6101d2565b6040516100a791906103c5565b60405180910390f35b60606000808373ffffffffffffffffffffffffffffffffffffffff1673ffffffffffffffffffffffffffffffffffffffff16815260200190815260200160002080546100fb906104c8565b80601f0160208091040260200160405190810160405280929190818152602001828054610127906104c8565b80156101745780601f1061014957610100808354040283529160200191610174565b820191906000526020600020905b81548152906001019060200180831161015757829003601f168201915b50505050509050919050565b81816000803373ffffffffffffffffffffffffffffffffffffffff1673ffffffffffffffffffffffffffffffffffffffff16815260200190815260200160002091826101cd9291906106e9565b505050565b60606000803373ffffffffffffffffffffffffffffffffffffffff1673ffffffffffffffffffffffffffffffffffffffff168152602001908152602001600020805461021d906104c8565b80601f0160208091040260200160405190810160405280929190818152602001828054610249906104c8565b80156102965780601f1061026b57610100808354040283529160200191610296565b820191906000526020600020905b81548152906001019060200180831161027957829003601f168201915b5050505050905090565b600080fd5b600080fd5b600073ffffffffffffffffffffffffffffffffffffffff82169050919050565b60006102d5826102aa565b9050919050565b6102e5816102ca565b81146102f057600080fd5b50565b600081359050610302816102dc565b92915050565b60006020828403121561031e5761031d6102a0565b5b600061032c848285016102f3565b91505092915050565b600081519050919050565b600082825260208201905092915050565b60005b8381101561036f578082015181840152602081019050610354565b60008484015250505050565b6000601f19601f8301169050919050565b600061039782610335565b6103a18185610340565b93506103b1818560208601610351565b6103ba8161037b565b840191505092915050565b600060208201905081810360008301526103df818461038c565b905092915050565b600080fd5b600080fd5b600080fd5b60008083601f84011261040c5761040b6103e7565b5b8235905067ffffffffffffffff811115610429576104286103ec565b5b602083019150836001820283011115610445576104446103f1565b5b9250929050565b60008060208385031215610463576104626102a0565b5b600083013567ffffffffffffffff811115610481576104806102a5565b5b61048d858286016103f6565b92509250509250929050565b7f4e487b7100000000000000000000000000000000000000000000000000000000600052602260045260246000fd5b600060028204905060018216806104e057607f821691505b6020821081036104f3576104f2610499565b5b50919050565b600082905092915050565b7f4e487b7100000000000000000000000000000000000000000000000000000000600052604160045260246000fd5b60008190508160005260206000209050919050565b60006020601f8301049050919050565b600082821b905092915050565b6000600883026105957fffffffffffffffffffffffffffffffffffffffffffffffffffffffffffffffff82610558565b61059f8683610558565b95508019841693508086168417925050509392505050565b6000819050919050565b6000819050919050565b60006105e66105e16105dc846105b7565b6105c1565b6105b7565b9050919050565b6000819050919050565b610600836105cb565b61061461060c826105ed565b848454610565565b825550505050565b600090565b61062961061c565b6106348184846105f7565b505050565b5b818110156106585761064d600082610621565b60018101905061063a565b5050565b601f82111561069d5761066e81610533565b61067784610548565b81016020851015610686578190505b61069a61069285610548565b830182610639565b50505b505050565b600082821c905092915050565b60006106c0600019846008026106a2565b1980831691505092915050565b60006106d983836106af565b9150826002028217905092915050565b6106f383836104f9565b67ffffffffffffffff81111561070c5761070b610504565b5b61071682546104c8565b61072182828561065c565b6000601f831160018114610750576000841561073e578287013590505b61074885826106cd565b8655506107b0565b601f19841661075e86610533565b60005b8281101561078657848901358255600182019150602085019450602081019050610761565b868310156107a3578489013561079f601f8916826106af565b8355505b6001600288020188555050505b5050505050505056fea2646970667358221220863fb54982fbc2af11b46bb1bd40678f61cba678d9b48d7203ba04b3aa33918964736f6c63430008180033",
  "linkReferences": {},
  "deployedLinkReferences": {}
}