{
  "_format": "hh-sol-artifact-1",
  "contractName": "LocationLogging",
  "sourceName": "contracts/LocationLogging.sol",
  "abi": [
    {
      "inputs": [
        {
          "internalType": "address",
          "name": "user",
          "type": "address"
        }
      ],
      "name": "getLocationByUser",
      "outputs": [
        {
          "components": [
            {
              "internalType": "string",
              "name": "place",
              "type": "string"
            },
            {
              "internalType": "uint256",
              "name": "timestamp",
              "type": "uint256"
            }
          ],
          "internalType": "struct LocationLogging.Location[]",
          "name": "",
          "type": "tuple[]"
        }
      ],
      "stateMutability": "view",
      "type": "function"
    },
    {
      "inputs": [
        {
          "internalType": "string",
          "name": "place",
          "type": "string"
        }
      ],
      "name": "logLocation",
      "outputs": [],
      "stateMutability": "nonpayable",
      "type": "function"
    }
  ],
  "bytecode": "0x608060405234801561001057600080fd5b506108fa806100206000396000f3fe608060405234801561001057600080fd5b50600436106100365760003560e01c80634d07815c1461003b578063f3378d6314610057575b600080fd5b61005560048036038101906100509190610315565b610087565b005b610071600480360381019061006c91906103c0565b61016d565b60405161007e9190610595565b60405180910390f35b6000803373ffffffffffffffffffffffffffffffffffffffff1673ffffffffffffffffffffffffffffffffffffffff168152602001908152602001600020604051806040016040528084848080601f016020809104026020016040519081016040528093929190818152602001838380828437600081840152601f19601f820116905080830192505050505050508152602001428152509080600181540180825580915050600190039060005260206000209060020201600090919091909150600082015181600001908161015c91906107f2565b506020820151816001015550505050565b60606000808373ffffffffffffffffffffffffffffffffffffffff1673ffffffffffffffffffffffffffffffffffffffff168152602001908152602001600020805480602002602001604051908101604052809291908181526020016000905b8282101561029b578382906000526020600020906002020160405180604001604052908160008201805461020090610615565b80601f016020809104026020016040519081016040528092919081815260200182805461022c90610615565b80156102795780601f1061024e57610100808354040283529160200191610279565b820191906000526020600020905b81548152906001019060200180831161025c57829003601f168201915b50505050508152602001600182015481525050815260200190600101906101cd565b505050509050919050565b600080fd5b600080fd5b600080fd5b600080fd5b600080fd5b60008083601f8401126102d5576102d46102b0565b5b8235905067ffffffffffffffff8111156102f2576102f16102b5565b5b60208301915083600182028301111561030e5761030d6102ba565b5b9250929050565b6000806020838503121561032c5761032b6102a6565b5b600083013567ffffffffffffffff81111561034a576103496102ab565b5b610356858286016102bf565b92509250509250929050565b600073ffffffffffffffffffffffffffffffffffffffff82169050919050565b600061038d82610362565b9050919050565b61039d81610382565b81146103a857600080fd5b50565b6000813590506103ba81610394565b92915050565b6000602082840312156103d6576103d56102a6565b5b60006103e4848285016103ab565b91505092915050565b600081519050919050565b600082825260208201905092915050565b6000819050602082019050919050565b600081519050919050565b600082825260208201905092915050565b60005b83811015610453578082015181840152602081019050610438565b60008484015250505050565b6000601f19601f8301169050919050565b600061047b82610419565b6104858185610424565b9350610495818560208601610435565b61049e8161045f565b840191505092915050565b6000819050919050565b6104bc816104a9565b82525050565b600060408301600083015184820360008601526104df8282610470565b91505060208301516104f460208601826104b3565b508091505092915050565b600061050b83836104c2565b905092915050565b6000602082019050919050565b600061052b826103ed565b61053581856103f8565b93508360208202850161054785610409565b8060005b85811015610583578484038952815161056485826104ff565b945061056f83610513565b925060208a0199505060018101905061054b565b50829750879550505050505092915050565b600060208201905081810360008301526105af8184610520565b905092915050565b7f4e487b7100000000000000000000000000000000000000000000000000000000600052604160045260246000fd5b7f4e487b7100000000000000000000000000000000000000000000000000000000600052602260045260246000fd5b6000600282049050600182168061062d57607f821691505b6020821081036106405761063f6105e6565b5b50919050565b60008190508160005260206000209050919050565b60006020601f8301049050919050565b600082821b905092915050565b6000600883026106a87fffffffffffffffffffffffffffffffffffffffffffffffffffffffffffffffff8261066b565b6106b2868361066b565b95508019841693508086168417925050509392505050565b6000819050919050565b60006106ef6106ea6106e5846104a9565b6106ca565b6104a9565b9050919050565b6000819050919050565b610709836106d4565b61071d610715826106f6565b848454610678565b825550505050565b600090565b610732610725565b61073d818484610700565b505050565b5b818110156107615761075660008261072a565b600181019050610743565b5050565b601f8211156107a65761077781610646565b6107808461065b565b8101602085101561078f578190505b6107a361079b8561065b565b830182610742565b50505b505050565b600082821c905092915050565b60006107c9600019846008026107ab565b1980831691505092915050565b60006107e283836107b8565b9150826002028217905092915050565b6107fb82610419565b67ffffffffffffffff811115610814576108136105b7565b5b61081e8254610615565b610829828285610765565b600060209050601f83116001811461085c576000841561084a578287015190505b61085485826107d6565b8655506108bc565b601f19841661086a86610646565b60005b828110156108925784890151825560018201915060208501945060208101905061086d565b868310156108af57848901516108ab601f8916826107b8565b8355505b6001600288020188555050505b50505050505056fea264697066735822122014836b00f954e28fbbac183995cd483865e278a0636067726bc8b10cf468dbd064736f6c63430008180033",
  "linkReferences": {},
  "deployedLinkReferences": {}
}